:100000000C9458000C9480000C9480000C94800098
:100010000C9480000C9480000C9480000C94800060
:100020000C9480000C9480000C9480000C94800050
:100030000C9480000C9480000C9480000C94800040
:100040000C942C030C9480000C94FA020C94D402AF
:100050000C9480000C9480000C9480000C94800020
:100060000C9480000C948000000000002300260007
:10007000290004040404040404040202020202022B
:10008000030303030303010204081020408001025C
:1000900004081020010204081020000000080002DB
:1000A0000100000304070000000000000000F1064A
:1000B00011241FBECFEFD8E0DEBFCDBF12E0A0E01D
:1000C000B1E0E0E9FEE002C005900D92AE3AB10762
:1000D000D9F723E0AEEAB2E001C01D92AC37B20717
:1000E000E1F710E0C8E5D0E004C02197FE010E94CE
:1000F0004007C735D107C9F70E9476030C9446071D
:100100000C940000AF92BF92CF92DF92EF92FF92D9
:100110000F931F93CF93DF936C017B018B01040F2F
:10012000151FEB015E01AE18BF08C017D10759F0CB
:100130006991D601ED91FC910190F081E02DC6010D
:100140000995892B79F7C501DF91CF911F910F9107
:10015000FF90EF90DF90CF90BF90AF900895FC019B
:10016000538D448D252F30E0842F90E0821B930B1C
:10017000541710F0CF96089501970895FC01918DC2
:10018000828D981761F0A28DAE0FBF2FB11D5D96C5
:100190008C91928D9F5F9F73928F90E008958FEF67
:1001A0009FEF0895FC01918D828D981731F0828D1B
:1001B000E80FF11D858D90E008958FEF9FEF089572
:1001C000FC01918D228D892F90E0805C9F4F821BD6
:1001D00091098F73992708958FED92E00E94E000B6
:1001E00021E0892B09F420E0822F089580E090E03F
:1001F000892B29F00E94EC0081110C9400000895D5
:10020000FC01A48DA80FB92FB11DA35ABF4F2C918B
:10021000848D90E001968F739927848FA689B78982
:100220002C93A089B1898C91837080648C93938D79
:10023000848D981306C00288F389E02D80818F7D1C
:1002400080830895EF92FF920F931F93CF93DF93D4
:10025000EC0181E0888F9B8D8C8D98131AC0E88902
:10026000F989808185FF15C09FB7F894EE89FF89D1
:100270006083E889F98980818370806480839FBF6F
:1002800081E090E0DF91CF911F910F91FF90EF906F
:100290000895F62E0B8D10E00F5F1F4F0F7311277F
:1002A000E02E8C8D8E110CC00FB607FCFACFE889BA
:1002B000F989808185FFF5CFCE010E940001F1CF41
:1002C000EB8DEC0FFD2FF11DE35AFF4FF0829FB72E
:1002D000F8940B8FEA89FB8980818062CFCFCF931E
:1002E000DF93EC01888D8823B9F0AA89BB89E8895E
:1002F000F9898C9185FD03C0808186FD0DC00FB604
:1003000007FCF7CF8C9185FFF2CF808185FFEDCF81
:10031000CE010E940001E9CFDF91CF91089590E0D6
:10032000FC01E656FF4F2491FC01EA57FF4F349140
:10033000FC01EE58FF4FE491EE23C1F1222339F086
:100340002330E9F090F4213001F1223011F1F0E096
:10035000EE0FFF1FE859FF4FA591B491EC91E323F5
:1003600081E090E029F580E008952730A9F0283059
:10037000C9F0243061F7809180008F7D03C08091A7
:1003800080008F7780938000E2CF84B58F7784BD23
:10039000DECF84B58F7DFBCF8091B0008F778093C7
:1003A000B000D5CF8091B0008F7DF9CF80E090E094
:1003B00008953FB7F8948091B3029091B402A09150
:1003C000B502B091B60226B5A89B05C02F3F19F023
:1003D0000196A11DB11D3FBFBA2FA92F982F8827C5
:1003E000BC01CD01620F711D811D911D42E0660FA0
:1003F000771F881F991F4A95D1F708958F929F9272
:10040000AF92BF92CF92DF92EF92FF924B015C01CD
:100410000E94D9016B017C010E94D9016C197D09F0
:100420008E099F09683E734081059105A8F321E07C
:10043000821A9108A108B10888EEC80E83E0D81E80
:10044000E11CF11C81149104A104B10429F7FF906F
:10045000EF90DF90CF90BF90AF909F908F900895D6
:10046000FC0101900020E9F73197AF01481B590BBF
:10047000BC018FED92E00C948200CF93DF93D0E02B
:10048000C0E0009719F00E943002EC0182E191E097
:100490000E9430028C0F9D1FDF91CF9108958F92A3
:1004A0009F92AF92BF92CF92DF92EF92FF920F9303
:1004B0001F93CF93DF93CDB7DEB7A1970FB6F89414
:1004C000DEBF0FBECDBF6C01990FEE08FF08F7FE2F
:1004D00047C06DE28FED92E00E9422018C0122273D
:1004E0003327A9012C193D094E095F0919A2CE0134
:1004F00081967C019AE0892E912CA12CB12CCA0105
:10050000B901A50194010E941E07605DF701629385
:100510007F01211531054105510589F790E080E003
:10052000309719F0CF010E943002080F191F82E1A5
:1005300091E00E943002800F911FA1960FB6F894AF
:10054000DEBF0FBECDBFDF91CF911F910F91FF9006
:10055000EF90DF90CF90BF90AF909F908F900895D5
:10056000A701960119A28E010F5D1F4F8AE0C82EC8
:10057000D12CE12CF12CCA01B901A70196010E94EE
:100580001E07605DF80162938F0121153105410559
:10059000510589F7309729F0CF010E9430028C0174
:1005A000C6CF10E000E0C3CF1F920F920FB60F929C
:1005B00011242F933F934F935F936F937F938F9368
:1005C0009F93AF93BF93EF93FF938FED92E00E94C1
:1005D0000001FF91EF91BF91AF919F918F917F911A
:1005E0006F915F914F913F912F910F900FBE0F90A0
:1005F0001F9018951F920F920FB60F9211242F93F0
:100600008F939F93EF93FF93E091EF02F091F002AD
:100610008081E091F502F091F60282FD1BC090818D
:100620008091F8028F5F8F732091F902821741F059
:10063000E091F802F0E0E152FD4F958F8093F802CF
:10064000FF91EF919F918F912F910F900FBE0F907F
:100650001F9018958081F4CF1F920F920FB60F92C2
:1006600011242F933F938F939F93AF93BF938091C8
:10067000AF029091B002A091B102B091B20230915C
:10068000AE0223E0230F2D3758F50196A11DB11DB1
:100690002093AE028093AF029093B002A093B10278
:1006A000B093B2028091B3029091B402A091B502CE
:1006B000B091B6020196A11DB11D8093B302909333
:1006C000B402A093B502B093B602BF91AF919F91CF
:1006D0008F913F912F910F900FBE0F901F90189503
:1006E00026E8230F0296A11DB11DD2CF789484B5C0
:1006F000826084BD84B5816084BD85B5826085BD1E
:1007000085B5816085BD80916E00816080936E00AB
:10071000109281008091810082608093810080919D
:10072000810081608093810080918000816080934E
:1007300080008091B10084608093B1008091B0000E
:1007400081608093B00080917A00846080937A0009
:1007500080917A00826080937A0080917A00816033
:1007600080937A0080917A00806880937A0010925A
:10077000C100E091EF02F091F00282E08083E0910D
:10078000EB02F091EC021082E091ED02F091EE02AA
:100790008FEC80831092F702E091F302F091F40263
:1007A00086E08083E091F102F091F2028081806125
:1007B0008083E091F102F091F20280818860808371
:1007C000E091F102F091F202808180688083E091F3
:1007D000F102F091F20280818F7D808392E3E92E15
:1007E000F12CC5E1D1E02BE4222E22E0322E38ECB0
:1007F000C32ED12C44EF442E5524539404E610E02C
:1008000066246A94762C82E00E948F015C0183E06A
:100810000E948F014C01AB2809F479C18091DD025F
:100820009091DE0201969093DE028093DD02909318
:10083000DC028093DB029093DA028093D902019765
:1008400009F048C06CE271E080E090E00E94FE0197
:100850001093D2020093D102D092D402C092D3025C
:10086000D093D602C093D50288E191E09093D8024C
:100870008093D7028DE191E00E943D028091D102E8
:100880009091D2020E944F0283E391E00E943D02C8
:100890008091D3029091D4020E944F028BE491E0A8
:1008A0000E943D028091D5029091D6020E943D02A5
:1008B00082E691E00E943D028091D7029091D80299
:1008C0000E943D0289E791E00E943D0289E791E0A4
:1008D0000E943D028091DB029091DC02029709F0B8
:1008E00048C06CE271E080E090E00E94FE01F0926E
:1008F000CA02E092C9021093CC020093CB02D093BB
:10090000CE02C093CD028EE791E09093D002809307
:10091000CF0288E891E00E943D028091C902909147
:10092000CA020E944F028EE991E00E943D0280912E
:10093000CB029091CC020E944F0286EB91E00E9484
:100940003D028091CD029091CE020E943D028DEC3D
:1009500091E00E943D028091CF029091D0020E94CE
:100960003D0289E791E00E943D0289E791E00E9403
:100970003D028091DB029091DC02039709F04AC0AE
:100980006CE271E080E090E00E94FE01D092C20231
:10099000C092C1025092C4024092C30284EE91E020
:1009A0009093C6028093C50287EE91E09093C802AF
:1009B0008093C7028FEE91E00E943D028091C102B8
:1009C0009091C2020E944F0285E092E00E943D0297
:1009D0008091C3029091C4020E944F028DE192E087
:1009E0000E943D028091C5029091C6020E943D0284
:1009F00084E392E00E943D028091C7029091C80278
:100A00000E943D0289E791E00E943D0289E791E062
:100A10000E943D028091DB029091DC02049709F074
:100A200048C06CE271E080E090E00E94FE01F0922C
:100A3000BA02E092B9028BE490E09093BC028093FA
:100A4000BB02D093BE02C093BD023092C00220927E
:100A5000BF0282E592E00E943D028091B90290912E
:100A6000BA020E944F0288E692E00E943D02809105
:100A7000BB029091BC020E944F0280E892E00E946B
:100A80003D028091BD029091BE020E943D0287E925
:100A900092E00E943D028091BF029091C0020E94AC
:100AA0003D0289E791E00E943D0289E791E00E94C2
:100AB0003D028091D9029091DA02059741F510929A
:100AC000DA021092D902892809F478C11092DE0264
:100AD0001092DD028091B7029091B802892B51F4F7
:100AE00085E090E09093B8028093B7029093DE0285
:100AF0008093DD0280E090E0892B09F484CE0E948F
:100B0000EC00882309F47ACE0E94000077CE892871
:100B100009F7A090DD02B090DE0291E0A91AB108B9
:100B2000B092DE02A092DD02B092DC02A092DB0263
:100B3000B092B802A092B70264E670E080E090E064
:100B40000E94FE01AA94AB2809F048C06CE271E053
:100B500080E090E00E94FE011093D2020093D10247
:100B6000D092D402C092D302D093D602C093D502C1
:100B700088E191E09093D8028093D7028DE191E0D3
:100B80000E943D028091D1029091D2020E944F02B8
:100B900083E391E00E943D028091D3029091D402C0
:100BA0000E944F028BE491E00E943D028091D502A9
:100BB0009091D6020E943D0282E691E00E943D02A1
:100BC0008091D7029091D8020E943D0289E791E07E
:100BD0000E943D0289E791E00E943D028091DB0284
:100BE0009091DC02029709F048C06CE271E080E06D
:100BF00090E00E94FE01F092CA02E092C9021093B6
:100C0000CC020093CB02D093CE02C093CD028EE7EC
:100C100091E09093D0028093CF0288E891E00E9407
:100C20003D028091C9029091CA020E944F028EE952
:100C300091E00E943D028091CB029091CC020E94F3
:100C40004F0286EB91E00E943D028091CD0290918F
:100C5000CE020E943D028DEC91E00E943D02809107
:100C6000CF029091D0020E943D0289E791E00E945C
:100C70003D0289E791E00E943D028091DB02909164
:100C8000DC02039709F04AC06CE271E080E090E07A
:100C90000E94FE01D092C202C092C1025092C402D0
:100CA0004092C30284EE91E09093C6028093C50205
:100CB00087EE91E09093C8028093C7028FEE91E097
:100CC0000E943D028091C1029091C2020E944F0297
:100CD00085E092E00E943D028091C3029091C4029F
:100CE0000E944F028DE192E00E943D028091C50278
:100CF0009091C6020E943D0284E392E00E943D0270
:100D00008091C7029091C8020E943D0289E791E05C
:100D10000E943D0289E791E00E943D028091DB0242
:100D20009091DC02049709F0D5CE6CE271E080E08E
:100D300090E00E94FE01F092BA02E092B9028BE4C8
:100D400090E09093BC028093BB02D093BE02C0930C
:100D5000BD023092C0022092BF0282E592E00E9462
:100D60003D028091B9029091BA020E944F0288E63A
:100D700092E00E943D028091BB029091BC020E94D1
:100D80004F0280E892E00E943D028091BD02909166
:100D9000BE020E943D0287E992E00E943D028091DE
:100DA000BF029091C0020E943D0289E791E00E943B
:100DB0003D0289E791E00E943D028CCE7092DE02F6
:100DC0006092DD027092DC026092DB027092B802E7
:100DD0006092B70264E670E080E090E00E94FE015D
:100DE000FDCEEFEDF2E01382128288EE93E0A0E0F8
:100DF000B0E084839583A683B78384E091E09183F8
:100E0000808385EC90E09587848784EC90E09787D9
:100E1000868780EC90E0918B808B81EC90E0938BC7
:100E2000828B82EC90E0958B848B86EC90E0978BA4
:100E3000868B118E128E138E148E0895A1E21A2EB7
:100E4000AA1BBB1BFD010DC0AA1FBB1FEE1FFF1F6E
:100E5000A217B307E407F50720F0A21BB30BE40BBE
:100E6000F50B661F771F881F991F1A9469F7609505
:100E70007095809590959B01AC01BD01CF010895BF
:100E8000EE0FFF1F0590F491E02D0994F894FFCF29
:100E90000000000022018200AF006F01E000BE00F0
:100EA000D2000D0A003551004C6179730053544F44
:100EB000434B2044454C2050524F445543544F20FF
:100EC000313A00524553455256412044454C20503A
:100ED000524F445543544F20313A005052454349F4
:100EE0004F2044454C2050524F445543544F2031DD
:100EF0003A004E4F4D4252452044454C2050524FEF
:100F0000445543544F20313A002020202000436FA5
:100F1000636120436F6C610053544F434B20444541
:100F20004C2050524F445543544F20323A005245C2
:100F300053455256412044454C2050524F4455434E
:100F4000544F20323A0050524543494F2044454CBB
:100F50002050524F445543544F20323A004E4F4D8B
:100F60004252452044454C2050524F445543544F23
:100F700020323A00315100544F52545249580053D4
:100F8000544F434B2044454C2050524F44554354FA
:100F90004F20333A00524553455256412044454C68
:100FA0002050524F445543544F20333A005052453D
:100FB00043494F2044454C2050524F445543544FD1
:100FC00020333A004E4F4D4252452044454C20506C
:100FD000524F445543544F20333A00444F524954E2
:100FE0004F0053544F434B2044454C2050524F44E4
:100FF0005543544F20343A005245534552564120F0
:1010000044454C2050524F445543544F20343A00ED
:1010100050524543494F2044454C2050524F44556F
:1010200043544F20343A004E4F4D425245204445E0
:0E1030004C2050524F445543544F20343A0048
:00000001FF
